{
  "_format": "hh-sol-artifact-1",
  "contractName": "LeaguePayout",
  "sourceName": "contracts/LeaguePayout.sol",
  "abi": [
    {
      "inputs": [],
      "stateMutability": "nonpayable",
      "type": "constructor"
    },
    {
      "anonymous": false,
      "inputs": [
        {
          "indexed": true,
          "internalType": "address",
          "name": "sender",
          "type": "address"
        },
        {
          "indexed": false,
          "internalType": "uint256",
          "name": "amount",
          "type": "uint256"
        }
      ],
      "name": "Deposit",
      "type": "event"
    },
    {
      "anonymous": false,
      "inputs": [
        {
          "indexed": false,
          "internalType": "string",
          "name": "leagueId",
          "type": "string"
        },
        {
          "indexed": false,
          "internalType": "string",
          "name": "userId",
          "type": "string"
        },
        {
          "indexed": false,
          "internalType": "uint256",
          "name": "commissionPercentage",
          "type": "uint256"
        },
        {
          "indexed": true,
          "internalType": "address",
          "name": "creator",
          "type": "address"
        },
        {
          "indexed": false,
          "internalType": "uint256",
          "name": "feePaid",
          "type": "uint256"
        }
      ],
      "name": "LeagueCreated",
      "type": "event"
    },
    {
      "anonymous": false,
      "inputs": [
        {
          "indexed": false,
          "internalType": "string",
          "name": "leagueId",
          "type": "string"
        },
        {
          "indexed": true,
          "internalType": "address",
          "name": "winner",
          "type": "address"
        },
        {
          "indexed": false,
          "internalType": "uint256",
          "name": "amount",
          "type": "uint256"
        }
      ],
      "name": "Payout",
      "type": "event"
    },
    {
      "anonymous": false,
      "inputs": [
        {
          "indexed": false,
          "internalType": "string",
          "name": "leagueId",
          "type": "string"
        },
        {
          "indexed": false,
          "internalType": "uint256",
          "name": "totalPayout",
          "type": "uint256"
        },
        {
          "indexed": false,
          "internalType": "uint256",
          "name": "commission",
          "type": "uint256"
        }
      ],
      "name": "PayoutCompleted",
      "type": "event"
    },
    {
      "anonymous": false,
      "inputs": [
        {
          "indexed": true,
          "internalType": "address",
          "name": "user",
          "type": "address"
        },
        {
          "indexed": false,
          "internalType": "uint256",
          "name": "amount",
          "type": "uint256"
        },
        {
          "indexed": false,
          "internalType": "string",
          "name": "userId",
          "type": "string"
        },
        {
          "indexed": false,
          "internalType": "string",
          "name": "leagueId",
          "type": "string"
        }
      ],
      "name": "Stake",
      "type": "event"
    },
    {
      "inputs": [
        {
          "internalType": "string",
          "name": "leagueId",
          "type": "string"
        },
        {
          "internalType": "string",
          "name": "userId",
          "type": "string"
        },
        {
          "internalType": "uint256",
          "name": "commissionPercentage",
          "type": "uint256"
        }
      ],
      "name": "createLeague",
      "outputs": [],
      "stateMutability": "payable",
      "type": "function"
    },
    {
      "inputs": [
        {
          "internalType": "string",
          "name": "",
          "type": "string"
        },
        {
          "internalType": "address",
          "name": "",
          "type": "address"
        }
      ],
      "name": "hasStaked",
      "outputs": [
        {
          "internalType": "bool",
          "name": "",
          "type": "bool"
        }
      ],
      "stateMutability": "view",
      "type": "function"
    },
    {
      "inputs": [
        {
          "internalType": "string",
          "name": "",
          "type": "string"
        }
      ],
      "name": "leagueBalances",
      "outputs": [
        {
          "internalType": "uint256",
          "name": "",
          "type": "uint256"
        }
      ],
      "stateMutability": "view",
      "type": "function"
    },
    {
      "inputs": [
        {
          "internalType": "string",
          "name": "",
          "type": "string"
        }
      ],
      "name": "leagueFeePaid",
      "outputs": [
        {
          "internalType": "bool",
          "name": "",
          "type": "bool"
        }
      ],
      "stateMutability": "view",
      "type": "function"
    },
    {
      "inputs": [],
      "name": "owner",
      "outputs": [
        {
          "internalType": "address",
          "name": "",
          "type": "address"
        }
      ],
      "stateMutability": "view",
      "type": "function"
    },
    {
      "inputs": [
        {
          "internalType": "string",
          "name": "leagueId",
          "type": "string"
        },
        {
          "internalType": "address[]",
          "name": "winners",
          "type": "address[]"
        },
        {
          "internalType": "uint256[]",
          "name": "winningPercentages",
          "type": "uint256[]"
        },
        {
          "internalType": "uint256",
          "name": "commissionPercentage",
          "type": "uint256"
        }
      ],
      "name": "payoutWinners",
      "outputs": [],
      "stateMutability": "nonpayable",
      "type": "function"
    },
    {
      "inputs": [
        {
          "internalType": "string",
          "name": "leagueId",
          "type": "string"
        },
        {
          "internalType": "string",
          "name": "userId",
          "type": "string"
        }
      ],
      "name": "stake",
      "outputs": [],
      "stateMutability": "payable",
      "type": "function"
    },
    {
      "inputs": [
        {
          "internalType": "uint256",
          "name": "amount",
          "type": "uint256"
        }
      ],
      "name": "withdraw",
      "outputs": [],
      "stateMutability": "nonpayable",
      "type": "function"
    },
    {
      "stateMutability": "payable",
      "type": "receive"
    }
  ],
  "bytecode": "0x608060405234801561001057600080fd5b50336000806101000a81548173ffffffffffffffffffffffffffffffffffffffff021916908373ffffffffffffffffffffffffffffffffffffffff160217905550611ebf806100606000396000f3fe60806040526004361061007f5760003560e01c80635b1aa0011161004e5780635b1aa001146101985780638da5cb5b146101b4578063ae078706146101df578063afebb0f214610208576100d4565b80631934408c146100d957806319b36b1d146101165780632e1a7d4d1461013257806339d69ee31461015b576100d4565b366100d4573373ffffffffffffffffffffffffffffffffffffffff167fe1fffcc4923d04b559f4d29a8bfc6cda04eb5b0d3c460751c2402c5c5cc9109c346040516100ca9190610ea3565b60405180910390a2005b600080fd5b3480156100e557600080fd5b5061010060048036038101906100fb9190611018565b610245565b60405161010d919061107c565b60405180910390f35b610130600480360381019061012b91906110f7565b61027b565b005b34801561013e57600080fd5b50610159600480360381019061015491906111a4565b6103c7565b005b34801561016757600080fd5b50610182600480360381019061017d919061122f565b610569565b60405161018f919061107c565b60405180910390f35b6101b260048036038101906101ad919061128b565b6105ae565b005b3480156101c057600080fd5b506101c9610794565b6040516101d6919061132f565b60405180910390f35b3480156101eb57600080fd5b50610206600480360381019061020191906113f6565b6107b8565b005b34801561021457600080fd5b5061022f600480360381019061022a9190611018565b610e5c565b60405161023c9190610ea3565b60405180910390f35b6003818051602081018201805184825260208301602085012081835280955050505050506000915054906101000a900460ff1681565b600034116102be576040517f08c379a00000000000000000000000000000000000000000000000000000000081526004016102b590611542565b60405180910390fd5b34600185856040516102d1929190611592565b908152602001604051809103902060008282546102ee91906115da565b92505081905550600160028585604051610309929190611592565b908152602001604051809103902060003373ffffffffffffffffffffffffffffffffffffffff1673ffffffffffffffffffffffffffffffffffffffff16815260200190815260200160002060006101000a81548160ff0219169083151502179055503373ffffffffffffffffffffffffffffffffffffffff167f1c314513811a938c2a2803ead1499aeadd2460a1a51b6f110757a266e464577a34848488886040516103b995949392919061163b565b60405180910390a250505050565b60008054906101000a900473ffffffffffffffffffffffffffffffffffffffff1673ffffffffffffffffffffffffffffffffffffffff163373ffffffffffffffffffffffffffffffffffffffff1614610455576040517f08c379a000000000000000000000000000000000000000000000000000000000815260040161044c906116d0565b60405180910390fd5b80471015610498576040517f08c379a000000000000000000000000000000000000000000000000000000000815260040161048f9061173c565b60405180910390fd5b60008060009054906101000a900473ffffffffffffffffffffffffffffffffffffffff1673ffffffffffffffffffffffffffffffffffffffff16826040516104df9061178d565b60006040518083038185875af1925050503d806000811461051c576040519150601f19603f3d011682016040523d82523d6000602084013e610521565b606091505b5050905080610565576040517f08c379a000000000000000000000000000000000000000000000000000000000815260040161055c906117ee565b60405180910390fd5b5050565b6002828051602081018201805184825260208301602085012081835280955050505050506020528060005260406000206000915091509054906101000a900460ff1681565b60003411156106bf5760008060009054906101000a900473ffffffffffffffffffffffffffffffffffffffff1673ffffffffffffffffffffffffffffffffffffffff16346040516105fe9061178d565b60006040518083038185875af1925050503d806000811461063b576040519150601f19603f3d011682016040523d82523d6000602084013e610640565b606091505b5050905080610684576040517f08c379a000000000000000000000000000000000000000000000000000000000815260040161067b9061185a565b60405180910390fd5b600160038787604051610698929190611592565b908152602001604051809103902060006101000a81548160ff021916908315150217905550505b6001600286866040516106d3929190611592565b908152602001604051809103902060003373ffffffffffffffffffffffffffffffffffffffff1673ffffffffffffffffffffffffffffffffffffffff16815260200190815260200160002060006101000a81548160ff0219169083151502179055503373ffffffffffffffffffffffffffffffffffffffff167f6fc754f086b7172f54d78ecfecbf7c8d15239a1a4b4a8890b7dc7982b316f9698686868686346040516107859695949392919061187a565b60405180910390a25050505050565b60008054906101000a900473ffffffffffffffffffffffffffffffffffffffff1681565b600060149054906101000a900460ff1615610808576040517f08c379a00000000000000000000000000000000000000000000000000000000081526004016107ff9061191d565b60405180910390fd5b6001600060146101000a81548160ff02191690831515021790555060008054906101000a900473ffffffffffffffffffffffffffffffffffffffff1673ffffffffffffffffffffffffffffffffffffffff163373ffffffffffffffffffffffffffffffffffffffff16146108b1576040517f08c379a00000000000000000000000000000000000000000000000000000000081526004016108a890611989565b60405180910390fd5b8282905085859050146108f9576040517f08c379a00000000000000000000000000000000000000000000000000000000081526004016108f0906119f5565b60405180910390fd5b60006001888860405161090d929190611592565b9081526020016040518091039020541161095c576040517f08c379a000000000000000000000000000000000000000000000000000000000815260040161095390611a61565b60405180910390fd5b6127108111156109a1576040517f08c379a000000000000000000000000000000000000000000000000000000000815260040161099890611acd565b60405180910390fd5b600387876040516109b3929190611592565b908152602001604051809103902060009054906101000a900460ff1615610a185760008114610a17576040517f08c379a0000000000000000000000000000000000000000000000000000000008152600401610a0e90611b39565b60405180910390fd5b5b600060018888604051610a2c929190611592565b908152602001604051809103902054905060006127108383610a4e9190611b59565b610a589190611bca565b905060008183610a689190611bfb565b9050600060018b8b604051610a7e929190611592565b9081526020016040518091039020819055506000821115610b685760008060009054906101000a900473ffffffffffffffffffffffffffffffffffffffff1673ffffffffffffffffffffffffffffffffffffffff1683604051610ae09061178d565b60006040518083038185875af1925050503d8060008114610b1d576040519150601f19603f3d011682016040523d82523d6000602084013e610b22565b606091505b5050905080610b66576040517f08c379a0000000000000000000000000000000000000000000000000000000008152600401610b5d90611c7b565b60405180910390fd5b505b6000805b89899050811015610df75760028c8c604051610b89929190611592565b908152602001604051809103902060008b8b84818110610bac57610bab611c9b565b5b9050602002016020810190610bc19190611cca565b73ffffffffffffffffffffffffffffffffffffffff1673ffffffffffffffffffffffffffffffffffffffff16815260200190815260200160002060009054906101000a900460ff16610c48576040517f08c379a0000000000000000000000000000000000000000000000000000000008152600401610c3f90611d43565b60405180910390fd5b6000612710898984818110610c6057610c5f611c9b565b5b9050602002013585610c729190611b59565b610c7c9190611bca565b90506000811115610de35760008b8b84818110610c9c57610c9b611c9b565b5b9050602002016020810190610cb19190611cca565b73ffffffffffffffffffffffffffffffffffffffff1682604051610cd49061178d565b60006040518083038185875af1925050503d8060008114610d11576040519150601f19603f3d011682016040523d82523d6000602084013e610d16565b606091505b5050905080610d5a576040517f08c379a0000000000000000000000000000000000000000000000000000000008152600401610d5190611daf565b60405180910390fd5b8184610d6691906115da565b93508b8b84818110610d7b57610d7a611c9b565b5b9050602002016020810190610d909190611cca565b73ffffffffffffffffffffffffffffffffffffffff167f54f7dc9b81dbca6ba146f4620aa85a58a52aa8fd70e556240c7157e942d50a0e8f8f85604051610dd993929190611dcf565b60405180910390a2505b508080610def90611e01565b915050610b6c565b507f88f090d29e2a9800ec42704cc6fb91f1d28a9bf2906620e0c3fca48296ae9bb88b8b8386604051610e2d9493929190611e49565b60405180910390a15050505060008060146101000a81548160ff02191690831515021790555050505050505050565b6001818051602081018201805184825260208301602085012081835280955050505050506000915090505481565b6000819050919050565b610e9d81610e8a565b82525050565b6000602082019050610eb86000830184610e94565b92915050565b6000604051905090565b600080fd5b600080fd5b600080fd5b600080fd5b6000601f19601f8301169050919050565b7f4e487b7100000000000000000000000000000000000000000000000000000000600052604160045260246000fd5b610f2582610edc565b810181811067ffffffffffffffff82111715610f4457610f43610eed565b5b80604052505050565b6000610f57610ebe565b9050610f638282610f1c565b919050565b600067ffffffffffffffff821115610f8357610f82610eed565b5b610f8c82610edc565b9050602081019050919050565b82818337600083830152505050565b6000610fbb610fb684610f68565b610f4d565b905082815260208101848484011115610fd757610fd6610ed7565b5b610fe2848285610f99565b509392505050565b600082601f830112610fff57610ffe610ed2565b5b813561100f848260208601610fa8565b91505092915050565b60006020828403121561102e5761102d610ec8565b5b600082013567ffffffffffffffff81111561104c5761104b610ecd565b5b61105884828501610fea565b91505092915050565b60008115159050919050565b61107681611061565b82525050565b6000602082019050611091600083018461106d565b92915050565b600080fd5b600080fd5b60008083601f8401126110b7576110b6610ed2565b5b8235905067ffffffffffffffff8111156110d4576110d3611097565b5b6020830191508360018202830111156110f0576110ef61109c565b5b9250929050565b6000806000806040858703121561111157611110610ec8565b5b600085013567ffffffffffffffff81111561112f5761112e610ecd565b5b61113b878288016110a1565b9450945050602085013567ffffffffffffffff81111561115e5761115d610ecd565b5b61116a878288016110a1565b925092505092959194509250565b61118181610e8a565b811461118c57600080fd5b50565b60008135905061119e81611178565b92915050565b6000602082840312156111ba576111b9610ec8565b5b60006111c88482850161118f565b91505092915050565b600073ffffffffffffffffffffffffffffffffffffffff82169050919050565b60006111fc826111d1565b9050919050565b61120c816111f1565b811461121757600080fd5b50565b60008135905061122981611203565b92915050565b6000806040838503121561124657611245610ec8565b5b600083013567ffffffffffffffff81111561126457611263610ecd565b5b61127085828601610fea565b92505060206112818582860161121a565b9150509250929050565b6000806000806000606086880312156112a7576112a6610ec8565b5b600086013567ffffffffffffffff8111156112c5576112c4610ecd565b5b6112d1888289016110a1565b9550955050602086013567ffffffffffffffff8111156112f4576112f3610ecd565b5b611300888289016110a1565b935093505060406113138882890161118f565b9150509295509295909350565b611329816111f1565b82525050565b60006020820190506113446000830184611320565b92915050565b60008083601f8401126113605761135f610ed2565b5b8235905067ffffffffffffffff81111561137d5761137c611097565b5b6020830191508360208202830111156113995761139861109c565b5b9250929050565b60008083601f8401126113b6576113b5610ed2565b5b8235905067ffffffffffffffff8111156113d3576113d2611097565b5b6020830191508360208202830111156113ef576113ee61109c565b5b9250929050565b60008060008060008060006080888a03121561141557611414610ec8565b5b600088013567ffffffffffffffff81111561143357611432610ecd565b5b61143f8a828b016110a1565b9750975050602088013567ffffffffffffffff81111561146257611461610ecd565b5b61146e8a828b0161134a565b9550955050604088013567ffffffffffffffff81111561149157611490610ecd565b5b61149d8a828b016113a0565b935093505060606114b08a828b0161118f565b91505092959891949750929550565b600082825260208201905092915050565b7f5374616b6520616d6f756e74206d75737420626520677265617465722074686160008201527f6e20300000000000000000000000000000000000000000000000000000000000602082015250565b600061152c6023836114bf565b9150611537826114d0565b604082019050919050565b6000602082019050818103600083015261155b8161151f565b9050919050565b600081905092915050565b60006115798385611562565b9350611586838584610f99565b82840190509392505050565b600061159f82848661156d565b91508190509392505050565b7f4e487b7100000000000000000000000000000000000000000000000000000000600052601160045260246000fd5b60006115e582610e8a565b91506115f083610e8a565b9250828201905080821115611608576116076115ab565b5b92915050565b600061161a83856114bf565b9350611627838584610f99565b61163083610edc565b840190509392505050565b60006060820190506116506000830188610e94565b818103602083015261166381868861160e565b9050818103604083015261167881848661160e565b90509695505050505050565b7f4f6e6c79206f776e65722063616e207769746864726177000000000000000000600082015250565b60006116ba6017836114bf565b91506116c582611684565b602082019050919050565b600060208201905081810360008301526116e9816116ad565b9050919050565b7f496e73756666696369656e742062616c616e6365000000000000000000000000600082015250565b60006117266014836114bf565b9150611731826116f0565b602082019050919050565b6000602082019050818103600083015261175581611719565b9050919050565b600081905092915050565b50565b600061177760008361175c565b915061178282611767565b600082019050919050565b60006117988261176a565b9150819050919050565b7f5769746864726177206661696c65640000000000000000000000000000000000600082015250565b60006117d8600f836114bf565b91506117e3826117a2565b602082019050919050565b60006020820190508181036000830152611807816117cb565b9050919050565b7f466565207472616e73666572206661696c656400000000000000000000000000600082015250565b60006118446013836114bf565b915061184f8261180e565b602082019050919050565b6000602082019050818103600083015261187381611837565b9050919050565b6000608082019050818103600083015261189581888a61160e565b905081810360208301526118aa81868861160e565b90506118b96040830185610e94565b6118c66060830184610e94565b979650505050505050565b7f4e6f2072652d656e7472616e6379000000000000000000000000000000000000600082015250565b6000611907600e836114bf565b9150611912826118d1565b602082019050919050565b60006020820190508181036000830152611936816118fa565b9050919050565b7f4f6e6c79206f776e65722063616e207061796f75740000000000000000000000600082015250565b60006119736015836114bf565b915061197e8261193d565b602082019050919050565b600060208201905081810360008301526119a281611966565b9050919050565b7f417272617973206c656e677468206d69736d6174636800000000000000000000600082015250565b60006119df6016836114bf565b91506119ea826119a9565b602082019050919050565b60006020820190508181036000830152611a0e816119d2565b9050919050565b7f4e6f2066756e647320696e206c65616775650000000000000000000000000000600082015250565b6000611a4b6012836114bf565b9150611a5682611a15565b602082019050919050565b60006020820190508181036000830152611a7a81611a3e565b9050919050565b7f496e76616c696420636f6d6d697373696f6e2070657263656e74616765000000600082015250565b6000611ab7601d836114bf565b9150611ac282611a81565b602082019050919050565b60006020820190508181036000830152611ae681611aaa565b9050919050565b7f46656520706169642c206e6f20636f6d6d697373696f6e20616c6c6f77656400600082015250565b6000611b23601f836114bf565b9150611b2e82611aed565b602082019050919050565b60006020820190508181036000830152611b5281611b16565b9050919050565b6000611b6482610e8a565b9150611b6f83610e8a565b9250828202611b7d81610e8a565b91508282048414831517611b9457611b936115ab565b5b5092915050565b7f4e487b7100000000000000000000000000000000000000000000000000000000600052601260045260246000fd5b6000611bd582610e8a565b9150611be083610e8a565b925082611bf057611bef611b9b565b5b828204905092915050565b6000611c0682610e8a565b9150611c1183610e8a565b9250828203905081811115611c2957611c286115ab565b5b92915050565b7f436f6d6d697373696f6e207472616e73666572206661696c6564000000000000600082015250565b6000611c65601a836114bf565b9150611c7082611c2f565b602082019050919050565b60006020820190508181036000830152611c9481611c58565b9050919050565b7f4e487b7100000000000000000000000000000000000000000000000000000000600052603260045260246000fd5b600060208284031215611ce057611cdf610ec8565b5b6000611cee8482850161121a565b91505092915050565b7f57696e6e657220646964206e6f74207374616b65000000000000000000000000600082015250565b6000611d2d6014836114bf565b9150611d3882611cf7565b602082019050919050565b60006020820190508181036000830152611d5c81611d20565b9050919050565b7f5472616e73666572206661696c65640000000000000000000000000000000000600082015250565b6000611d99600f836114bf565b9150611da482611d63565b602082019050919050565b60006020820190508181036000830152611dc881611d8c565b9050919050565b60006040820190508181036000830152611dea81858761160e565b9050611df96020830184610e94565b949350505050565b6000611e0c82610e8a565b91507fffffffffffffffffffffffffffffffffffffffffffffffffffffffffffffffff8203611e3e57611e3d6115ab565b5b600182019050919050565b60006060820190508181036000830152611e6481868861160e565b9050611e736020830185610e94565b611e806040830184610e94565b9594505050505056fea26469706673582212204434dea528a6ab0ea2a9caa4f4e870d0be786064915429911a17bb064ad4832d64736f6c63430008140033",
  "linkReferences": {},
  "deployedLinkReferences": {}
}